:020000040000FA
:10000000D0200020C10100003F0D00005909000070
:1000100000000000000000000000000000000000E0
:10002000000000000000000000000000E3130000DA
:100030000000000000000000650F0000D10100007A
:10004000D3010000710B0000A5170000730600002B
:10005000750600002D080000571600005916000014
:10006000DD1300007106000065060000630F00004C
:10007000A7170000D1140000B1140000F101000026
:10008000F3010000630600005D080000E1130000BA
:10009000DF13000067060000690600006B06000021
:1000A0006D06000000000000000000006F06000068
:1000B0005F08000061080000630800006508000098
:1000C00000F002F800F050F80CA030C808382418EE
:1000D0002D18A246671EAB4654465D46AC4201D180
:1000E00000F042F87E460F3E0FCCB6460126334262
:1000F00000D0FB1AA246AB4633431847B81700009E
:10010000D8170000103A02D378C878C1FAD852073D
:1001100001D330C830C101D504680C6070470000BD
:100120000023002400250026103A01D378C1FBD813
:10013000520700D330C100D50B60704710B5642959
:1001400002D100F0C1F810BD752902D100F0BCF851
:1001500010BD782902D100F0EDF810BD002010BDCF
:100160001FB51FBD10B510BD00F049FA1146FFF7CD
:10017000F7FF01F019FB00F061FA03B4FFF7F2FF9B
:1001800003BC00F067FA000070B505460C46164641
:1001900002E00FCC0FC5103E102EFAD2082E02D36B
:1001A00003CC03C5083E042E07D301CC01C5361F7E
:1001B00003E021782970641C6D1C761EF9D270BD95
:1001C0001648804716480047FEE7FEE7FEE7FEE7D1
:1001D000FEE7FEE7FEE7FEE7FEE7FEE7FEE7FEE7F7
:1001E000FEE7FEE7FEE7FEE7FEE7FEE7FEE7FEE7E7
:1001F000FEE7FEE7FEE7FEE7FEE7FEE7FEE7FEE7D7
:10020000FEE7FEE7FEE7FEE7FEE7FEE7FEE70000AB
:1002100004480549054A064B704700008514000054
:10022000C1000000D0000020D0200020D01000200D
:10023000D01000200FB41CB5074B06AA7B446946BA
:100240000090059800F0AFF90020694600F0BEF973
:100250001CBC08BC04B018478D030000F8B50E465E
:100260000446002020622046E1688847002829D003
:10027000252802D06268A16820E0E16820460027B6
:10028000884705001ED028464138192802D8012782
:10029000FF0220353246204627602946FFF74EFFF1
:1002A000002808D0012804D0F61DF608F60008360C
:1002B000D9E7361DD7E762682846A1689047206ACB
:1002C000401CCFE7206AF8BDF7B5002575291068F6
:1002D000009914A611D0C046C046002802DA404258
:1002E00011A608E0009909688A0701D50FA602E067
:1002F000490704D50EA6012501E0C046C046009F6F
:100300000024243704E000F066F930313955641CCC
:100310000028F8D12B4632462146009800F0E6F836
:10032000FEBD0000000000002D0000002B000000BA
:100330002000000070B504460D4621461068C046F6
:10034000C0462188090502D50F4A7A4402E00E4AC8
:100350007A440E3223460021243305E006070009C3
:10036000360F965D5E54491C0028F7D12078002393
:10037000000705D5702D03D0002901D002231132CA
:10038000204600F0B3F870BD3E15000000220309BE
:100390008B422CD3030A8B4211D300239C464EE0A0
:1003A00003460B433CD4002243088B4231D303095C
:1003B0008B421CD3030A8B4201D394463FE0C3090E
:1003C0008B4201D3CB01C01A524183098B4201D326
:1003D0008B01C01A524143098B4201D34B01C01A11
:1003E000524103098B4201D30B01C01A5241C30889
:1003F0008B4201D3CB00C01A524183088B4201D3F8
:100400008B00C01A524143088B4201D34B00C01AE3
:100410005241411A00D201465241104670475DE0F8
:10042000CA0F00D04942031000D34042534000227B
:100430009C4603098B422DD3030A8B4212D3FC2224
:10044000890112BA030A8B420CD3890192118B42A3
:1004500008D3890192118B4204D389013AD09211B9
:1004600000E08909C3098B4201D3CB01C01A524174
:1004700083098B4201D38B01C01A524143098B423D
:1004800001D34B01C01A524103098B4201D30B0126
:10049000C01A5241C3088B4201D3CB00C01A52414B
:1004A00083088B4201D38B00C01A5241D9D2430832
:1004B0008B4201D34B00C01A5241411A00D201466F
:1004C000634652415B10104601D34042002B00D5D9
:1004D0004942704763465B1000D3404201B500209B
:1004E000C046C04602BD704770477047FFB504461E
:1004F0000D4681B0243000902168880604D5102272
:10050000E0699143216000E00120A84201DD471B22
:1005100000E000270498A1697A191018081AA06150
:100520002078C00602D42046C046C046002608E017
:1005300003986268A168805D9047206A401C761C21
:10054000206204988642F3DB2078C0060AD5204654
:10055000C046C04606E06268A16830209047206A25
:10056000401C206238467F1E0028F4DC07E000981B
:100570006268A168405D9047206A401C206228465E
:100580006D1E0028F3DC2046C046C04620780006D9
:1005900002D5022005B0F0BD0120FBE701694A1C2D
:1005A00002610878704700B58FB002910021059173
:1005B0000549019379440391114604906846FFF779
:1005C0004DFE0FB000BD0000E5FFFFFF0A68107090
:1005D000521C0A60704701468008081A0209101868
:1005E000020A1018020C1018C008820012185200DB
:1005F000891A01E0401C0A390A29FBD27047754666
:1006000000F024F8AE46050069465346C008C00015
:10061000854618B020B5FFF7FBFD60BC00274908F0
:10062000B6460026C0C5C0C5C0C5C0C5C0C5C0C58A
:10063000C0C5C0C5403D49008D46704710B5044651
:10064000C046C0462046FFF798FD10BD00487047E1
:100650006C00002001491820ABBEFEE72600020016
:1006600070477047704770477047704770477047D2
:10067000704770477047000070B5002400250020C7
:100680001C49087000BF12E0E2001B4BD218918891
:10069000E200985800F04AFC012806D1154800787D
:1006A0000121A140084313490870601CC4B21348DB
:1006B00000788442E8DB0F480078002814D000243A
:1006C0000DE00C4800780121A14008400121A14023
:1006D000884202D1601CC5B205E0601CC4B2074864
:1006E00000788442EDDB00BF0548057001480078C2
:1006F00070BD0000150000204C1800001400002000
:100700000800002010B5002400BF012000F01CFEEE
:1007100000BF00F037FE012805D02046641C0121EF
:1007200089048842F5D300F02DFE012801D0002075
:1007300010BD0B21022000F079FC012000F064FCC8
:1007400000BF00F09DFC012805D02046641C01215B
:1007500089048842F5D300F093FC012801D00020E1
:10076000E6E70121082000F029FE182000F070F8CB
:10077000002000F0B3FC012000F09EFCFF200130BF
:1007800000F0BAFC00F030FE0120D1E770B588B06F
:1007900006460C4615460121204600F00FFE05A82E
:1007A00000F0D1FB03216846417701218177C8051C
:1007B00000F004FE012168460177817508218182DD
:1007C00005A90E4800F040FB0195602168460181B3
:1007D000002141818181C181FF210131018201A973
:1007E000304600F079FF0021304600F037FF01214C
:1007F000304600F059FF08B070BD000000800B408B
:1008000070B504460AE000BF0821074800F05AFF0F
:100810000128F9D02946044800F0C2FF2578641C5D
:10082000002DF0D170BD00000000034070470000B3
:1008300070B5044600F03EF8054600BF00F03AF8F7
:10084000411B024860438142F8D370BDDC050000C3
:100850000149086070470000008001407047704700
:10086000704770477047000070B504460D4600BFE2
:100870000E2000F067FA00BF00BF0E20012181406A
:10088000094A116000BF09480068286008480068EC
:100890002060064840304069C007C00F0028E7D1FB
:1008A0000E2000F04FFA70BD80E100E0000007402C
:1008B000180000201CB5694601A8FFF7D5FF009875
:1008C000840901988004044320461CBD70B58AB099
:1008D000002400250026282219496846FFF754FC09
:1008E00005263146684600F03FFBFF20F530FFF754
:1008F0009FFF00BF11E0E2006B46D2189188E20032
:10090000985800F013FB002801D1012000E00020DE
:10091000A040284345B2601CC4B2B442EBDB2A4677
:1009200008A10C48FFF786FC0A48FFF769FF002D75
:1009300002D028460AB070BD0020C043FAE700008C
:10094000641800006D795F6164726573733D25649E
:100950000D0A00002C00002000BFFEE710B5044681
:10096000204600F001F810BD3EB504462168090399
:10097000CA0E012191400846012100F01FFD684682
:1009800000F0E1FAA1886846018001218170002110
:1009900001720121817241726946206800F054FAA7
:1009A0003EBD10B500F002F810BD000000B589B0E2
:1009B0000121480200F002FD06A800F0C4FA03215C
:1009C00008A8417001218170490368460183012113
:1009D00008A80170C80500F0F1FC06A93D4800F028
:1009E00033FA0121890368460183012108A80170B7
:1009F000C80500F0E3FC06A9364800F025FA0221FC
:100A000068460183012108A80170080600F0D6FCA1
:100A100006A9314800F018FA042168460183012133
:100A200008A80170080600F0C9FC06A92A4800F0D1
:100A30000BFA202168460183012108A801700806ED
:100A400000F0BCFC06A9244800F0FEF9FFF73EFFC9
:100A500022490880401C002801D1032008801F483B
:100A60000022825E1EA12148FFF7E4FB1F48FFF72A
:100A7000C7FE1F4800F011F9022000F0E5F801A8B8
:100A800000F04FF9022168460171002141711820E0
:100A900002901248415E039100216846417401743E
:100AA00001A9134800F017F9012012490862022138
:100AB00000F08EF90120012181400F4A116000BF32
:100AC00000200C49886148610121094800F0CEF8F6
:100AD00009B000BD00800B4000000C402400002045
:100AE0006164726573733D25750D0A002C0000204A
:100AF000008004400090044000E100E000B589B0AF
:100B00000121880300F05AFC174800F06BFD01A892
:100B100000F05AFD0020029014480390002168461E
:100B2000018241828182C182018341838183C183A9
:100B3000018401A90C4800F02AFD00210A4800F0B8
:100B4000C9FC01221146084800F077FD03210E2060
:100B500000F002F90E2000F0F5F80121024800F043
:100B60000BFD09B000BD000000000740FFFFFF00C3
:100B700010B52C48446802202040002828D029487D
:100B8000006A02210840002822D02648C068264971
:100B900000228A5ED102254A891888420FD1244951
:100BA00048780978000208431E49486108460068F1
:100BB000102108431B4908600120086231E01948F0
:100BC000C0681C4988422CD105201649086228E0DB
:100BD0000420204000280BD01248006A042108405D
:100BE000002805D002200F4908620846C06818E0B6
:100BF000E007C00F002814D00A48006AC007C00FE1
:100C000000280ED00CA10F48FFF714FB0D48FFF78A
:100C1000F7FD04480068102188430249086002205B
:100C2000086210BD0090044024000020130400005E
:100C300008000020A6FA00006765745F6972710DF4
:100C40000A0000002C0000200146074A506B1202E7
:100C50001043FF231B0202469A4310460A02104328
:100C6000014A5063704700000000024000290AD08A
:100C700001221203821812685208520001231B033A
:100C8000C3181A6008E001221203821812680123B7
:100C90001A431B03C3181A60704701210A03821804
:100CA0001160002101221203821811620122120335
:100CB0008218D160012212038218116101221203ED
:100CC00082185161012212038218916101221203DC
:100CD0008218D161704710B502464B789B040C789E
:100CE000A40023434C68E40223438C68A4012343FB
:100CF0004C7B240123430C7B640123438C7BE40461
:100D000023431846CB7B1B050C7CA40523434C7C5A
:100D1000E40523431843012318431B03D318186029
:100D200010BD0021416002210170002141708160ED
:100D3000417301738173C17301744174704700BFC3
:100D4000FEE70000C206D20E01219140014A116067
:100D50007047000000E100E010B5002819DA1A4AD7
:100D600003071B0F083B9B089B00D2588307DC0E30
:100D7000FF23A3409A438B071B0E8407E40EA34076
:100D80001A43114B0407240F083CA408A4001A516D
:100D900018E00E4A03231B02D21883089B00D25886
:100DA0008307DC0EFF23A3409A438B071B0E8407A7
:100DB000E40EA3401A43054B032424021B198408A4
:100DC000A4001A5110BD00001CED00E000E100E09D
:100DD00010B5002819DA1A4A03071B0F083B9B08B5
:100DE0009B00D2588307DC0EFF23A3409A438B0756
:100DF0001B0E8407E40EA3401A43114B0407240F73
:100E0000083CA408A4001A5118E00E4A03231B0250
:100E1000D21883089B00D2588307DC0EFF23A3401F
:100E20009A438B071B0E8407E40EA3401A43054B1D
:100E3000032424021B198408A4001A5110BD0000C9
:100E40001CED00E000E100E0F0B589B045680895D0
:100E500085680795C56806950569059545690495F2
:100E600085690395C56902950022012303242E4D4F
:100E700000950D88019543E0019DED07ED0F002DD4
:100E800035D0089D9D438E789640354308950D7A60
:100E90005600B540079EA64335430795069D9D43E2
:100EA0008E7A964035430695009E059DB543CE78D3
:100EB00017461037BE4035430E79964035430595A9
:100EC000009E049DB5434E79BE4035438E799640D1
:100ED000354304954D7A5600B540039EA6433543ED
:100EE0000395029D9D43CE799640354302955B0064
:100EF000A400009D6D000095521C019D6D08019598
:100F0000019D002DB8D1089D4560079D8560069D17
:100F1000C560059D0561049D4561039D8561029D38
:100F2000C56109B0F0BD0000010001000246136870
:100F30000B40002B01D0012000E0002070474162EF
:100F40007047016270470021C94301800021817010
:100F5000C170017141718171C171017241728172FF
:100F60007047704700BFFEE7FEB505460E460121FB
:100F7000880500F023FA6846FFF7E5FF0021684680
:100F80008170017201218172417200240BE0E00046
:100F90004019808869460880E10068586946FFF773
:100FA00053FF601CC4B2B442F1DBFEBD3EB5002469
:100FB0000121480600F002FA6846FFF7C4FF00214D
:100FC00068468170017201218172417200BF0DE09B
:100FD000E0000A494018808869460880E100074A15
:100FE00050586946FFF730FF601CC4B204480078CF
:100FF0008442EDDB0020034908703EBD4C18000020
:1010000014000020150000200146074A50680029FE
:1010100002D00422104303E0042302469A43104600
:10102000014A5060704700000000024010B50246BF
:10103000124BD868800880000346134318460F4BB4
:10104000D86058680F2424020346A34318460B02B5
:1010500018430A4B58605B6804242340042B0BD1CF
:10106000064B586808231843044B5860082403466D
:10107000A3431846014B586010BD00000000024019
:1010800038B50020009000BF212000F043F905464C
:101090000098401C0090032149020098884201D228
:1010A000002DF1D0212000F035F9002801D00124D5
:1010B00000E00024204638BD01460020064AD068E2
:1010C000002902D00422104303E0042302469A437D
:1010D0001046014AD0607047000002400146054AB0
:1010E000D068F02302469A4310460A011043014A91
:1010F000D0607047000002400146064AD0680323D2
:101100001B0202469A43104602460A431046014A11
:10111000D060704700000240F0B58BB004467A48BA
:10112000C06802210840002801D0784F00E0774FC6
:101130007548C068C007C00F002800D07F080A9714
:101140007148C06804210840002809D06E484068F2
:101150000005000F401C019001990A9848430A902D
:101160006948C0688005800F002804D0012805D098
:10117000022820D11BE0654820601FE06248C0685B
:10118000000908210840002802D10A9809900BE0C4
:101190005D48C0684006400F401C01228240114655
:1011A0000A98FFF7F3F809900998206006E00120FB
:1011B000C003206002E05648206000BF00BF5248D4
:1011C000006902210840002802D05048089001E040
:1011D0004E4808904C480069C007C00F002802D054
:1011E000089840080890089807904748006904212B
:1011F0000840002809D0444840680006000F401C01
:1012000001900199079848430790079806903E4837
:10121000006910210840002802D006984008069076
:101220000698606038488069050908202840002831
:1012300002D1364803900AE06807400F401C0121A4
:1012400081400D4629463148FFF7A0F803900398E6
:10125000E0602D48856908202840002802D12B48ED
:1012600002900AE06807400F401C012181400D46B2
:1012700029462648FFF78AF8029002982061224802
:1012800040698007800F002804D0012804D002287C
:1012900008D104E0059708E00898059005E00A9851
:1012A000059002E00798059000BF00BF164840690E
:1012B0008006800F002804D0012805D0022807D11D
:1012C00004E00126F60305E0114E03E0059E01E06F
:1012D000039E00BF00BF0C484069050A0820284053
:1012E000002801D104960AE06807400F401C012144
:1012F00081400D4629463046FFF748F8049004988F
:10130000A0600BB0F0BD00000000024000127A00A7
:10131000409C000010B50146E0230B40202B02D179
:10132000074B1A6801E0074BDA6BCC06E40E012389
:10133000A3401340002B01D0012000E0002010BD8D
:101340000000024000800D400D498968890889002D
:101350000B4A9160012802D002280ED106E008490C
:10136000896801221143064A916007E004498968AF
:1013700003221143024A916000E000BF00BF7047A2
:101380000000024038B50020009000BF2220FFF787
:10139000C1FF05460098401C0090032149020098B7
:1013A000884201D2002DF1D02220FFF7B3FF0028A0
:1013B00001D0012400E00024204638BD002905D0DA
:1013C000054AD2690243044BDA6104E0024AD26959
:1013D0008243014BDA61704700000240704770475A
:1013E000704700BFFEE70000F8B52248C068022140
:1013F0000840022801D1204C00E01F4C1D48C06865
:10140000C007C00F002800D0640825461948C068EE
:1014100004210840042807D1164840680005000F41
:10142000471C2846784305461248C0688005800F4F
:10143000002804D0012806D0022815D10FE00E485C
:101440000E49086014E00B48C0680006000F411CFC
:101450002846FEF79BFF064608490E6008E001207B
:10146000C0030649086003E005480449086000BF5E
:1014700000BFF8BD0000024000127A0028000020E2
:10148000409C000010B510200849C8610020C860C9
:1014900048608860086148618861086248628862C3
:1014A000C8624863FFF7A0FF10BD000000000240C3
:1014B00005480068401C0449086004484069400829
:1014C0004000024948617047180000204000074072
:1014D0007047000010B50246224B9A4202D1224BBF
:1014E000986A01E0204B586A204B9A4208D1000AC2
:1014F000000203460B43184601231B06184327E04E
:101500001B4B9A420AD1FF2424020346A3431846E8
:101510000B02184301235B06184319E0154B9A424E
:1015200009D1FF2424040346A34318460B0418439F
:10153000D30118430CE00B4B9A4209D1FF24240439
:101540000346A34318460B04184301239B06184384
:10155000044B9A4202D1044B986201E0024B58625C
:1015600010BD00000080094000000240000007405C
:1015700000800740000008400A46C168002A02D0E7
:101580000123194301E049084900C160704730B5A3
:101590000C6804604C6844608C6884608C89CD89D8
:1015A0002C430D8A2C434D8A2C438D8A2C43224692
:1015B000C260CC8A24010D8B2C434D8B2C438D8B28
:1015C0002C432346036530BD0021016041608160EA
:1015D0008181C181018241828182C18201834183F3
:1015E000818370470021C1600160416081600162B8
:1015F00041628162C162016341638163C1630166CB
:1016000041668166C166016141618161C1610167B5
:1016100041678167C167016441648164C164016598
:1016200041658165C16500228C210A5088210A50DC
:1016300084210A5080210A50704710B51346826DEC
:10164000002B03D014460C43224602E014468C4380
:101650002246826510BD70477047000010B50246F3
:101660000E4B986A0E4B9A4208D101231B06184371
:10167000000A000203460B4318460CE0094B9A424D
:1016800009D101235B061843FF2424020346A34328
:1016900018460B021843014B986210BD000002402F
:1016A0000000034000800340002904D0026B0123A6
:1016B0001A43026303E0026B014B1A400263704756
:1016C000FEFF0000024693690B40002B01D0012071
:1016D00000E0002070470000F0B58BB005460C46D6
:1016E000A089286301A8FFF717FD01980A902948EF
:1016F000876A2948854209D17A07520F0120904014
:1017000001460A98FEF742FE0A900DE02348854202
:101710000AD1072000023840020A01209040014609
:101720000A98FEF733FE0A90206881080A98FEF7AF
:101730002DFE089008988209079208988206920E5A
:101740000692079A9301069A99180A9A9000FEF752
:101750001DFE09902168099A521AD001FEF716FE63
:101760000646022E03DC0120C043864202DA002036
:101770000BB0F0BD079868620698A862A088E1885F
:10178000084321890843618908430746EF62012025
:10179000EEE700000000024000000340008003402C
:1017A0000160704770477047FFF76CFEFEF7AAFFB5
:1017B000FFF7A4F91B48FFF7D1F802211A48FFF7F9
:1017C000C0FBFFF783F8FFF7F1FBE1225202402153
:1017D0001648FEF7DBFF102015494870FFF7E1F8C7
:1017E0001FE002211048FFF7A1FB002804D00221CE
:1017F0000D48FFF7A4FB03E002210B48FFF7A1FB14
:10180000FEF73AFF04460A480378224609A10E482B
:10181000FEF710FD0C48FEF7F3FF7D20C000FFF738
:1018200007F8DEE70000002000000B400000034046
:101830000800002063683D25782C2073746174755E
:10184000733D25780D0A00002C00002000800C401C
:101850000001000000800C402000000000800C40CF
:101860008000000000000B400008000000000B405A
:101870000010000000000B400020000000000B40A2
:101880000040000000000B40008000003031323387
:1018900034353637383941424344454640305800A4
:1018A00030313233343536373839616263646566D6
:1018B00040307800D4180000000000202C00000008
:1018C00004010000001900002C000020A4200000EA
:1018D0002001000000000B4002000000000000009A
:1018E00000000B40020000000300000000000000A8
:1018F00000000B40020000000000000000127A000F
:04000005000000C136
:00000001FF
